:100000000C9438000C942A010C9411010C944C00AF
:100010000C944C000C944C000C944C000C944C0030
:100020000C944C000C944C000C944C000C944C0020
:100030000C944C000C944C000C944C000C94E2007A
:100040000C9495010C944C000C944C000C944C00B6
:100050000C946B040C94D9020C944C000C944C003E
:100060000C944C000C944C000C944C000C944C00E0
:1000700011241FBECFEFD4E0DEBFCDBF11E0A0E062
:10008000B1E001C01D92AA37B107E1F70C9453000B
:100090000E944E000C94F9050C94000080E090E062
:1000A000089580E008958FEF8BBB88BB85BB82BB32
:1000B00085E08EBD789485B3877C85BB84B38863E7
:1000C00084BB0E94CD050E94BA020E94A80080E075
:1000D0000E94700380E00E944B030E943303F89457
:1000E0008CB59DB57894192FD82EEE24CC24C394CA
:1000F0000AC0F12E1C2F8C2F8D198D3610F51D2D59
:10010000EE2468011F2D0E949503082F0E946C02A7
:10011000082B0E29F894CCB5DDB57894002329F48A
:10012000CC2099F4CE010E947A03FD2E8D2F811BE5
:100130008535F8F20E9425031C2F8C2F8D198D36E2
:10014000F0F20E945100E82EDCCF0E942203EDCF96
:100150008A988B989298939885B7816085BF85B768
:10016000826085BF85B7846085BF85B7886085BF9D
:1001700080E48ABF8BB780648BBF89B7816089BFF9
:1001800089B7806889BF089580913701882309F471
:100190000895109237018FEF0895E0913601809114
:1001A00035018E1729F0F0E0EB5FFE4F8081089556
:1001B00080E0089580913601E5E0F1E0E80FF11D5F
:1001C000808908951F920F920FB60F9211248F937A
:1001D00080913A01813081F0853031F08F910F901C
:1001E0000FBE0F901F90189510923A018F910F90AB
:1001F0000FBE0F901F90189585E080933A018F9164
:100200000F900FBE0F901F90189590913601E5E06A
:10021000F1E0E90FF11D80A19F5F9F70909336017F
:1002200008951F920F920FB60F9211248F9312BE52
:100230008CE081BF83E083BF82E080933A0110921B
:1002400038018BB78F778BBF8F910F900FBE0F90B8
:100250001F9018951F920F920FB60F9211242F9393
:100260003F934F935F938F939F93EF93FF932CB59F
:100270003DB580E88ABF8BB780688BBF80913A011B
:10028000882331F18530C9F1813029F081E08093F4
:100290003A0113BE88BF8091030190910401A90126
:1002A000481B590B47335105E8F010923901309340
:1002B000040120930301FF91EF919F918F915F9132
:1002C0004F913F912F910F900FBE0F901F90189557
:1002D0001092390181E080933A0130930401209318
:1002E0000301E9CF4230510510F380913901813883
:1002F00041F08F5F80933901DACF81E080933A013A
:10030000CACF80910201882391F681E08093020197
:1003100080913501E82FF0E0EB5FFE4F93E890838A
:100320008F5F8F7080933501C2CF1F920F920FB6EF
:100330000F9211242F938F939F93EF93FF9320B3EA
:10034000287091B780913801882381F482B7891B86
:10035000843008F082C09B5F91BF81E080933801B8
:10036000222309F49DC08093000145C08130A1F093
:10037000965E91BF9A511092380182B7891B8430E2
:1003800008F052C0222309F48EC080910001882316
:1003900009F09FC0982F0AC082B7891B8430A8F14A
:1003A000915E91BF109238019091000180913A01C5
:1003B000823009F441C0833009F455C0E091350121
:1003C000EF5F2E2F2F70E15080913601821709F4D4
:1003D00078C0992309F06FC0F0E0EB5FFE4F81E039
:1003E00080838091010180A32093350181E0809377
:1003F0003A0113BE88BFFF91EF919F918F912F918A
:100400000F900FBE0F901F9018959B5F91BF2223F6
:1004100009F440C080910001880F8F5F8093000134
:1004200082E080933801E7CF909100019170809134
:100430003A01823009F0BFCF992309F1E0913501EB
:10044000F0E080913901EB5FFE4F808B83E0809379
:100450003A0181E080930101CECF9C5D91BF109263
:100460003801922FA3CF2091010127FD2EC0822FAA
:10047000880F992309F4816080930101BCCF81E04A
:1004800080933A0113BE88BF80E88ABF8BB780682B
:100490008BBFB1CF80910001880F80930001C0CF46
:1004A00010920001A8CF90E080910001833009F004
:1004B0007DCF91E07BCFF0E0EB5FFE4F82E8808361
:1004C00093CF81E08093370191CF84E080933A010C
:1004D000CECF81E0982F6ACF0F931F930E94C40064
:1004E0008823E9F400E00E94CD00182F882321F42E
:1004F000802F1F910F91089582E00E9470031130A8
:1005000019F11238B1F083E80E944B030E940501F3
:100510000E94330301E0802F1F910F91089580E026
:100520000E94700381E00E944B030E94330301E0AC
:10053000DACF82E80E944B030E94DA0081500E94C9
:100540004B030E940501E4CF0E94DA00815087FF2F
:1005500006C08F3F59F081E80E944B0302C00E9401
:100560004B030E9405010E944B03D2CF80E80E94FA
:100570004B03F7CF10BC8BE089B91CBE80B988E172
:100580008AB988E981B90895282F90914B0180910B
:100590004C01981711F45599FACFE92FF0E0E55C7A
:1005A000FE4F20839F5F9F7090934B015E9A559AF8
:1005B00008951F920F920FB60F9211248F939F935D
:1005C000EF93FF9390914C01E92FF0E0E55CFE4F33
:1005D00080818CB99F5F9F7080914B01891709F4CE
:1005E000559890934C01FF91EF919F918F910F90AF
:1005F0000FBE0F901F9018955F9904C02FEF3FEF2B
:10060000C90108958CB1282F30E0C9010895FC017B
:10061000862F90E09C012150304082239323892B28
:1006200041F04081842F90E08217930744F01082BC
:100630000895615080818F5F8623808308954F5F86
:1006400040830895109272010895F8942AB1559844
:1006500078945E9BFECF9CB58CB5891B8330E0F30C
:1006600025FD559A08950F931F9300914F01109106
:100670004E01103811F408C0169510FFFDCF1695E5
:10068000812F0E94C4020127802F8F770E94C4020D
:100690001F910F910895FF920F931F93F82E87FDDE
:1006A0001AC010914E0116958F2D8F770E94C402AB
:1006B00000914F010F2510FF06C01695812F0E9453
:1006C000C402012710E810934E0100934F011F91BF
:1006D0000F91FF90089510914E0116951068E4CF88
:1006E0008F70806880934F010E94C40280E88093DD
:1006F0004E01089580917201882339F45E9B10C0E9
:10070000923078F0909372010895813049F0981BEF
:10071000953030F080E80E94C40281E0809372013D
:1007200008958FEF809372010895BF92CF92DF9268
:10073000EF92FF920F931F93DF93CF930F92CDB75A
:10074000DEB710917001809171018983181779F1DA
:10075000E82FF0E0E05BFE4F00818F5F8F718983AF
:1007600080937101181739F0E82FF0E0E05BFE4F3D
:10077000F080F7FE6EC0033F51F1053F09F44DC014
:10078000003809F45DC0898380E80E94C40282E0D9
:100790000E94C40280E00E94C40282E00E94C4025F
:1007A0008091790180FD24C08FEF06C0198380916C
:1007B000790180FD1DC080E00F90CF91DF911F91E6
:1007C0000F91FF90EF90DF90CF90BF9008958983B5
:1007D00080E80E94C40283E00E94C40280E00E947C
:1007E000C40283E00E94C4028091790180FFDCCFC3
:1007F000F894809179018E7F80937901789480E8D4
:100800000E94C40284E00E94C40280E00E94C402EC
:1008100084E00E94C4028FEFCFCF898380E80E94DA
:10082000C40285E00E94C40280E00E94C40285E008
:100830000E94C4028091790180FDDACF8FEFBCCF96
:10084000181709F4B3CF8F5F8F71809371010F2D4B
:1008500089CF89836E010894C11CD11CC60160E256
:100860000E94070389818093710180E1B82EB00E48
:100870008B2D0E94C402E0917101E9831E1749F19A
:10088000F0E0E05BFE4FE080E7FC23C008C0F0E052
:10089000E05BFE4FE081FE2CE7FD10C0EE2EC601AE
:1008A00060E20E9407038981809371018F2D0E946D
:1008B000C402E0917101E9831E1749F78E2DB0261D
:1008C0008B250E94C4028091790180FD91CF8FEF2A
:1008D00073CF8F2DF4CF1F920F920FB60F9211246A
:1008E000CF92DF92EF92FF920F931F932F933F933C
:1008F0004F935F936F937F938F939F93AF93BF9328
:10090000EF93FF93DF93CF9300D0CDB7DEB7E091A5
:100910007001E0907101149947C0139926C0F3B09B
:100920000E2F10E0005B1E4FD8018C9187FD67C031
:10093000F7FC83C00F900F90CF91DF91FF91EF9163
:10094000BF91AF919F918F917F916F915F914F91E7
:100950003F912F911F910F91FF90EF90DF90CF90DB
:100960000F900FBE0F901F90189593B1EF5F1E2F41
:100970001F71E150E116B1F11A83F0E0E05BFE4F28
:1009800085EF8083903F08F470C0CE01029660E24C
:100990000E9407039A81E91609F4BDC0E12FF0E037
:1009A000E05BFE4F83EF0BC083B1EF5F9E2F9F7123
:1009B000E150E91669F0F0E0E05BFE4F82EF8083E2
:1009C000E92FF0E0E05BFE4F108290937001B2CF10
:1009D00080917901816080937901F0E0E05BFE4FC6
:1009E0001082A8CF80917901816080937901903F36
:1009F00008F472C0F0E0E05BFE4F10829BCFD09015
:100A00004D01D982F7FC6FC0ED1409F442C0ED2D01
:100A1000F0E0E05BFE4FF082CE01019660E20E94C2
:100A20000703898180934D0185CFEE1509F49AC0A3
:100A300080917901816080937901BFEEBF1528F51F
:100A4000EA8392E0C92ED12CCC0EDD1EC60160E2F5
:100A50000E9407039A81E91681F5809179018160EE
:100A600080937901F801108265CFE12FF0E0E05B1F
:100A7000FE4F908310937001CE01029660E20E94B7
:100A800007038A8180934D0155CFE983F801F082F5
:100A9000C3CFEE1511F7E98382EFD8018C93CE0115
:100AA000019660E20E9407038981E82FF0E0E05B95
:100AB000FE4F1082809370013DCF83EFD8018C935D
:100AC000E92FF0E0E05BFE4F108290937001C601C9
:100AD00060E20E9407032ECFF0E0E05BFE4F9083C0
:100AE000E0924D0127CFED1409F49FCFFFEEFF15E3
:100AF000F8F4DA828E010E5F1F4FC80160E20E9497
:100B000007039A81E916E1F480917901816080936D
:100B10007901ED2D6FCF809179018160809379010A
:100B2000E12FF0E0E05BFE4F10821093700102CFE6
:100B3000ED2DF0E0E05BFE4FF082D09270016CCFC3
:100B4000ED2DF0E0E05BFE4F83EF8083E92FF0E0D6
:100B5000E05BFE4F108290937001C80160E20E943A
:100B60000703E8CEE98382EFD8018C938E010F5FF3
:100B70001F4FC80160E20E9407038981E82FF0E05F
:100B8000E05BFE4FF08280937001C80160E20E943A
:100B90000703898180934D01CDCE84B3887F84BBC8
:100BA00085B3876085BB089523B320952770409156
:100BB00075012427A1F08091740190917301392F60
:100BC0003823322389279095822380937401292327
:100BD00020937301432740937501832F089510924A
:100BE00073011092740130E0832F08958091750194
:060BF0000895F894FFCF08
:00000001FF
